{
  "_format": "hh-sol-artifact-1",
  "contractName": "MultiSenderV1",
  "sourceName": "contracts/MultiSenderV1.sol",
  "abi": [
    {
      "anonymous": false,
      "inputs": [
        {
          "indexed": false,
          "internalType": "address",
          "name": "_token",
          "type": "address"
        },
        {
          "indexed": false,
          "internalType": "address",
          "name": "_sender",
          "type": "address"
        },
        {
          "indexed": false,
          "internalType": "uint256",
          "name": "_totalAmount",
          "type": "uint256"
        }
      ],
      "name": "Sent",
      "type": "event"
    },
    {
      "anonymous": false,
      "inputs": [
        {
          "indexed": false,
          "internalType": "address",
          "name": "_token",
          "type": "address"
        },
        {
          "indexed": false,
          "internalType": "address",
          "name": "_sender",
          "type": "address"
        },
        {
          "indexed": false,
          "internalType": "uint256[]",
          "name": "_tokenIds",
          "type": "uint256[]"
        }
      ],
      "name": "SentNFT",
      "type": "event"
    },
    {
      "anonymous": false,
      "inputs": [
        {
          "indexed": false,
          "internalType": "address",
          "name": "_sender",
          "type": "address"
        },
        {
          "indexed": false,
          "internalType": "uint256",
          "name": "_totalAmount",
          "type": "uint256"
        }
      ],
      "name": "SentNative",
      "type": "event"
    },
    {
      "inputs": [
        {
          "internalType": "contract IERC1155",
          "name": "_token",
          "type": "address"
        },
        {
          "internalType": "address[]",
          "name": "_to",
          "type": "address[]"
        },
        {
          "internalType": "uint256[]",
          "name": "_id",
          "type": "uint256[]"
        },
        {
          "internalType": "uint256[]",
          "name": "_amount",
          "type": "uint256[]"
        }
      ],
      "name": "multiSendERC1155",
      "outputs": [],
      "stateMutability": "nonpayable",
      "type": "function"
    },
    {
      "inputs": [
        {
          "internalType": "contract IERC721",
          "name": "_token",
          "type": "address"
        },
        {
          "internalType": "address[]",
          "name": "_to",
          "type": "address[]"
        },
        {
          "internalType": "uint256[]",
          "name": "_id",
          "type": "uint256[]"
        }
      ],
      "name": "multiSendERC721",
      "outputs": [],
      "stateMutability": "nonpayable",
      "type": "function"
    },
    {
      "inputs": [
        {
          "internalType": "address[]",
          "name": "_accounts",
          "type": "address[]"
        },
        {
          "internalType": "uint256[]",
          "name": "_amounts",
          "type": "uint256[]"
        }
      ],
      "name": "multiSendNativeToken",
      "outputs": [],
      "stateMutability": "payable",
      "type": "function"
    },
    {
      "inputs": [
        {
          "internalType": "address",
          "name": "_token",
          "type": "address"
        },
        {
          "internalType": "address[]",
          "name": "_accounts",
          "type": "address[]"
        },
        {
          "internalType": "uint256[]",
          "name": "_amounts",
          "type": "uint256[]"
        }
      ],
      "name": "multiSendToken",
      "outputs": [],
      "stateMutability": "nonpayable",
      "type": "function"
    }
  ],
  "bytecode": "0x608060405234801561001057600080fd5b50611a0c806100206000396000f3fe60806040526004361061003f5760003560e01c80635b6d4b1c146100445780638e89971814610060578063a3c33a0f14610089578063eb022b15146100b2575b600080fd5b61005e60048036038101906100599190610e38565b6100db565b005b34801561006c57600080fd5b5061008760048036038101906100829190610f17565b6102ab565b005b34801561009557600080fd5b506100b060048036038101906100ab9190610fea565b61047c565b005b3480156100be57600080fd5b506100d960048036038101906100d491906110f1565b610762565b005b83838383818190508484905014610127576040517f08c379a000000000000000000000000000000000000000000000000000000000815260040161011e906111e3565b60405180910390fd5b600080600090505b8989905081101561024157600073ffffffffffffffffffffffffffffffffffffffff168a8a8381811061016557610164611203565b5b905060200201602081019061017a9190611232565b73ffffffffffffffffffffffffffffffffffffffff16141580156101b7575060008888838181106101ae576101ad611203565b5b90506020020135115b1561022e576102068a8a838181106101d2576101d1611203565b5b90506020020160208101906101e79190611232565b8989848181106101fa576101f9611203565b5b905060200201356109bc565b87878281811061021957610218611203565b5b905060200201358261022b9190611298565b91505b8080610239906112ee565b91505061012f565b50600081346102509190611337565b905060008111156102665761026533826109bc565b5b7f72b8b00411c57b58075b8d738bec11388e7247748d7c49dde5c0e01ba9aa595d3383604051610297929190611389565b60405180910390a150505050505050505050565b838383838181905084849050146102f7576040517f08c379a00000000000000000000000000000000000000000000000000000000081526004016102ee906111e3565b60405180910390fd5b600080600090505b8989905081101561043457600073ffffffffffffffffffffffffffffffffffffffff168a8a8381811061033557610334611203565b5b905060200201602081019061034a9190611232565b73ffffffffffffffffffffffffffffffffffffffff16141580156103875750600088888381811061037e5761037d611203565b5b90506020020135115b15610421576103f9338b8b848181106103a3576103a2611203565b5b90506020020160208101906103b89190611232565b8a8a858181106103cb576103ca611203565b5b905060200201358e73ffffffffffffffffffffffffffffffffffffffff16610a6d909392919063ffffffff16565b87878281811061040c5761040b611203565b5b905060200201358261041e9190611298565b91505b808061042c906112ee565b9150506102ff565b507f3990db2d31862302a685e8086b5755072a6e2b5b780af1ee81ece35ee3cd33458a3383604051610468939291906113b2565b60405180910390a150505050505050505050565b858585858181905084849050146104c8576040517f08c379a00000000000000000000000000000000000000000000000000000000081526004016104bf906111e3565b60405180910390fd5b858590508a8a905014610510576040517f08c379a00000000000000000000000000000000000000000000000000000000081526004016105079061145b565b60405180910390fd5b6000808989905067ffffffffffffffff8111156105305761052f61147b565b5b60405190808252806020026020018201604052801561055e5781602001602082028036833780820191505090505b50905060005b8c8c905081101561071757600073ffffffffffffffffffffffffffffffffffffffff168d8d8381811061059a57610599611203565b5b90506020020160208101906105af9190611232565b73ffffffffffffffffffffffffffffffffffffffff16141580156105ec575060008989838181106105e3576105e2611203565b5b90506020020135115b15610704578d73ffffffffffffffffffffffffffffffffffffffff1663f242432a338f8f8581811061062157610620611203565b5b90506020020160208101906106369190611232565b8e8e8681811061064957610648611203565b5b905060200201358d8d8781811061066357610662611203565b5b905060200201356040518563ffffffff1660e01b815260040161068994939291906114e1565b600060405180830381600087803b1580156106a357600080fd5b505af11580156106b7573d6000803e3d6000fd5b505050508a8a828181106106ce576106cd611203565b5b905060200201358284815181106106e8576106e7611203565b5b6020026020010181815250506001836107019190611298565b92505b808061070f906112ee565b915050610564565b507f9d8c0b36781d045176b27ff445fb16c019ba72659ecb800239e371a48ca2d4c48d338360405161074b939291906115f7565b60405180910390a150505050505050505050505050565b838383838181905084849050146107ae576040517f08c379a00000000000000000000000000000000000000000000000000000000081526004016107a5906111e3565b60405180910390fd5b6000808787905067ffffffffffffffff8111156107ce576107cd61147b565b5b6040519080825280602002602001820160405280156107fc5781602001602082028036833780820191505090505b50905060005b8a8a905081101561097357600073ffffffffffffffffffffffffffffffffffffffff168b8b8381811061083857610837611203565b5b905060200201602081019061084d9190611232565b73ffffffffffffffffffffffffffffffffffffffff1614610960578b73ffffffffffffffffffffffffffffffffffffffff166342842e0e338d8d8581811061089857610897611203565b5b90506020020160208101906108ad9190611232565b8c8c868181106108c0576108bf611203565b5b905060200201356040518463ffffffff1660e01b81526004016108e5939291906113b2565b600060405180830381600087803b1580156108ff57600080fd5b505af1158015610913573d6000803e3d6000fd5b5050505088888281811061092a57610929611203565b5b9050602002013582848151811061094457610943611203565b5b60200260200101818152505060018361095d9190611298565b92505b808061096b906112ee565b915050610802565b507f9d8c0b36781d045176b27ff445fb16c019ba72659ecb800239e371a48ca2d4c48b33836040516109a7939291906115f7565b60405180910390a15050505050505050505050565b60008273ffffffffffffffffffffffffffffffffffffffff16826040516109e290611663565b60006040518083038185875af1925050503d8060008114610a1f576040519150601f19603f3d011682016040523d82523d6000602084013e610a24565b606091505b5050905080610a68576040517f08c379a0000000000000000000000000000000000000000000000000000000008152600401610a5f906116c4565b60405180910390fd5b505050565b610af0846323b872dd60e01b858585604051602401610a8e939291906113b2565b604051602081830303815290604052907bffffffffffffffffffffffffffffffffffffffffffffffffffffffff19166020820180517bffffffffffffffffffffffffffffffffffffffffffffffffffffffff8381831617835250505050610af6565b50505050565b6000610b58826040518060400160405280602081526020017f5361666545524332303a206c6f772d6c6576656c2063616c6c206661696c65648152508573ffffffffffffffffffffffffffffffffffffffff16610bbd9092919063ffffffff16565b9050600081511115610bb85780806020019051810190610b78919061171c565b610bb7576040517f08c379a0000000000000000000000000000000000000000000000000000000008152600401610bae906117bb565b60405180910390fd5b5b505050565b6060610bcc8484600085610bd5565b90509392505050565b606082471015610c1a576040517f08c379a0000000000000000000000000000000000000000000000000000000008152600401610c119061184d565b60405180910390fd5b610c2385610ce9565b610c62576040517f08c379a0000000000000000000000000000000000000000000000000000000008152600401610c59906118b9565b60405180910390fd5b6000808673ffffffffffffffffffffffffffffffffffffffff168587604051610c8b9190611948565b60006040518083038185875af1925050503d8060008114610cc8576040519150601f19603f3d011682016040523d82523d6000602084013e610ccd565b606091505b5091509150610cdd828286610d0c565b92505050949350505050565b6000808273ffffffffffffffffffffffffffffffffffffffff163b119050919050565b60608315610d1c57829050610d6c565b600083511115610d2f5782518084602001fd5b816040517f08c379a0000000000000000000000000000000000000000000000000000000008152600401610d6391906119b4565b60405180910390fd5b9392505050565b600080fd5b600080fd5b600080fd5b600080fd5b600080fd5b60008083601f840112610da257610da1610d7d565b5b8235905067ffffffffffffffff811115610dbf57610dbe610d82565b5b602083019150836020820283011115610ddb57610dda610d87565b5b9250929050565b60008083601f840112610df857610df7610d7d565b5b8235905067ffffffffffffffff811115610e1557610e14610d82565b5b602083019150836020820283011115610e3157610e30610d87565b5b9250929050565b60008060008060408587031215610e5257610e51610d73565b5b600085013567ffffffffffffffff811115610e7057610e6f610d78565b5b610e7c87828801610d8c565b9450945050602085013567ffffffffffffffff811115610e9f57610e9e610d78565b5b610eab87828801610de2565b925092505092959194509250565b600073ffffffffffffffffffffffffffffffffffffffff82169050919050565b6000610ee482610eb9565b9050919050565b610ef481610ed9565b8114610eff57600080fd5b50565b600081359050610f1181610eeb565b92915050565b600080600080600060608688031215610f3357610f32610d73565b5b6000610f4188828901610f02565b955050602086013567ffffffffffffffff811115610f6257610f61610d78565b5b610f6e88828901610d8c565b9450945050604086013567ffffffffffffffff811115610f9157610f90610d78565b5b610f9d88828901610de2565b92509250509295509295909350565b6000610fb782610ed9565b9050919050565b610fc781610fac565b8114610fd257600080fd5b50565b600081359050610fe481610fbe565b92915050565b60008060008060008060006080888a03121561100957611008610d73565b5b60006110178a828b01610fd5565b975050602088013567ffffffffffffffff81111561103857611037610d78565b5b6110448a828b01610d8c565b9650965050604088013567ffffffffffffffff81111561106757611066610d78565b5b6110738a828b01610de2565b9450945050606088013567ffffffffffffffff81111561109657611095610d78565b5b6110a28a828b01610de2565b925092505092959891949750929550565b60006110be82610ed9565b9050919050565b6110ce816110b3565b81146110d957600080fd5b50565b6000813590506110eb816110c5565b92915050565b60008060008060006060868803121561110d5761110c610d73565b5b600061111b888289016110dc565b955050602086013567ffffffffffffffff81111561113c5761113b610d78565b5b61114888828901610d8c565b9450945050604086013567ffffffffffffffff81111561116b5761116a610d78565b5b61117788828901610de2565b92509250509295509295909350565b600082825260208201905092915050565b7f746865206172726179732061726520646966666572656e74206c656e67746800600082015250565b60006111cd601f83611186565b91506111d882611197565b602082019050919050565b600060208201905081810360008301526111fc816111c0565b9050919050565b7f4e487b7100000000000000000000000000000000000000000000000000000000600052603260045260246000fd5b60006020828403121561124857611247610d73565b5b600061125684828501610f02565b91505092915050565b6000819050919050565b7f4e487b7100000000000000000000000000000000000000000000000000000000600052601160045260246000fd5b60006112a38261125f565b91506112ae8361125f565b9250827fffffffffffffffffffffffffffffffffffffffffffffffffffffffffffffffff038211156112e3576112e2611269565b5b828201905092915050565b60006112f98261125f565b91507fffffffffffffffffffffffffffffffffffffffffffffffffffffffffffffffff82141561132c5761132b611269565b5b600182019050919050565b60006113428261125f565b915061134d8361125f565b9250828210156113605761135f611269565b5b828203905092915050565b61137481610ed9565b82525050565b6113838161125f565b82525050565b600060408201905061139e600083018561136b565b6113ab602083018461137a565b9392505050565b60006060820190506113c7600083018661136b565b6113d4602083018561136b565b6113e1604083018461137a565b949350505050565b7f52656365697665727320616e6420616d6f756e7473206172652064696666657260008201527f656e74206c656e67746800000000000000000000000000000000000000000000602082015250565b6000611445602a83611186565b9150611450826113e9565b604082019050919050565b6000602082019050818103600083015261147481611438565b9050919050565b7f4e487b7100000000000000000000000000000000000000000000000000000000600052604160045260246000fd5b600082825260208201905092915050565b50565b60006114cb6000836114aa565b91506114d6826114bb565b600082019050919050565b600060a0820190506114f6600083018761136b565b611503602083018661136b565b611510604083018561137a565b61151d606083018461137a565b818103608083015261152e816114be565b905095945050505050565b600081519050919050565b600082825260208201905092915050565b6000819050602082019050919050565b61156e8161125f565b82525050565b60006115808383611565565b60208301905092915050565b6000602082019050919050565b60006115a482611539565b6115ae8185611544565b93506115b983611555565b8060005b838110156115ea5781516115d18882611574565b97506115dc8361158c565b9250506001810190506115bd565b5085935050505092915050565b600060608201905061160c600083018661136b565b611619602083018561136b565b818103604083015261162b8184611599565b9050949350505050565b600081905092915050565b600061164d600083611635565b9150611658826114bb565b600082019050919050565b600061166e82611640565b9150819050919050565b7f4661696c656420746f2073656e64206e61746976652061737365747300000000600082015250565b60006116ae601c83611186565b91506116b982611678565b602082019050919050565b600060208201905081810360008301526116dd816116a1565b9050919050565b60008115159050919050565b6116f9816116e4565b811461170457600080fd5b50565b600081519050611716816116f0565b92915050565b60006020828403121561173257611731610d73565b5b600061174084828501611707565b91505092915050565b7f5361666545524332303a204552433230206f7065726174696f6e20646964206e60008201527f6f74207375636365656400000000000000000000000000000000000000000000602082015250565b60006117a5602a83611186565b91506117b082611749565b604082019050919050565b600060208201905081810360008301526117d481611798565b9050919050565b7f416464726573733a20696e73756666696369656e742062616c616e636520666f60008201527f722063616c6c0000000000000000000000000000000000000000000000000000602082015250565b6000611837602683611186565b9150611842826117db565b604082019050919050565b600060208201905081810360008301526118668161182a565b9050919050565b7f416464726573733a2063616c6c20746f206e6f6e2d636f6e7472616374000000600082015250565b60006118a3601d83611186565b91506118ae8261186d565b602082019050919050565b600060208201905081810360008301526118d281611896565b9050919050565b600081519050919050565b60005b838110156119025780820151818401526020810190506118e7565b83811115611911576000848401525b50505050565b6000611922826118d9565b61192c8185611635565b935061193c8185602086016118e4565b80840191505092915050565b60006119548284611917565b915081905092915050565b600081519050919050565b6000601f19601f8301169050919050565b60006119868261195f565b6119908185611186565b93506119a08185602086016118e4565b6119a98161196a565b840191505092915050565b600060208201905081810360008301526119ce818461197b565b90509291505056fea26469706673582212204c224b5a141c5a99a5bde341b3741c6e4b84890addf27337865e13bf671155dc64736f6c634300080a0033",
  "linkReferences": {},
  "deployedLinkReferences": {}
}